{
  "contractName": "ListeNombres",
  "abi": [
    {
      "inputs": [],
      "stateMutability": "nonpayable",
      "type": "constructor"
    },
    {
      "inputs": [
        {
          "internalType": "uint256",
          "name": "",
          "type": "uint256"
        }
      ],
      "name": "nombres",
      "outputs": [
        {
          "internalType": "uint256",
          "name": "",
          "type": "uint256"
        }
      ],
      "stateMutability": "view",
      "type": "function",
      "constant": true
    },
    {
      "inputs": [
        {
          "internalType": "uint256",
          "name": "n",
          "type": "uint256"
        }
      ],
      "name": "ajouterNombre",
      "outputs": [],
      "stateMutability": "nonpayable",
      "type": "function"
    },
    {
      "inputs": [
        {
          "internalType": "uint256",
          "name": "index",
          "type": "uint256"
        }
      ],
      "name": "getElement",
      "outputs": [
        {
          "internalType": "uint256",
          "name": "",
          "type": "uint256"
        }
      ],
      "stateMutability": "view",
      "type": "function",
      "constant": true
    },
    {
      "inputs": [],
      "name": "afficheTableau",
      "outputs": [
        {
          "internalType": "uint256[]",
          "name": "",
          "type": "uint256[]"
        }
      ],
      "stateMutability": "view",
      "type": "function",
      "constant": true
    },
    {
      "inputs": [],
      "name": "calculerSomme",
      "outputs": [
        {
          "internalType": "uint256",
          "name": "somme",
          "type": "uint256"
        }
      ],
      "stateMutability": "view",
      "type": "function",
      "constant": true
    }
  ],
  "bytecode": "0x608060405234801561001057600080fd5b506000600a90806001815401808255809150506001900390600052602060002001600090919091909150556000601490806001815401808255809150506001900390600052602060002001600090919091909150556000601e90806001815401808255809150506001900390600052602060002001600090919091909150556105a38061009e6000396000f3fe608060405234801561001057600080fd5b50600436106100575760003560e01c80631f4440b01461005c5780633a7d22bc1461007a5780637692fb5f146100aa578063bd92c667146100da578063e66df334146100f6575b600080fd5b610064610114565b604051610071919061034a565b60405180910390f35b610094600480360381019061008f919061039d565b61016c565b6040516100a191906103d9565b60405180910390f35b6100c460048036038101906100bf919061039d565b6101da565b6040516100d191906103d9565b60405180910390f35b6100f460048036038101906100ef919061039d565b6101fe565b005b6100fe61022a565b60405161010b91906103d9565b60405180910390f35b6060600080548060200260200160405190810160405280929190818152602001828054801561016257602002820191906000526020600020905b81548152602001906001019080831161014e575b5050505050905090565b6000808054905082106101b4576040517f08c379a00000000000000000000000000000000000000000000000000000000081526004016101ab90610451565b60405180910390fd5b600082815481106101c8576101c7610471565b5b90600052602060002001549050919050565b600081815481106101ea57600080fd5b906000526020600020016000915090505481565b600081908060018154018082558091505060019003906000526020600020016000909190919091505550565b600080600090505b60008054905081101561027e576000818154811061025357610252610471565b5b90600052602060002001548261026991906104cf565b9150808061027690610525565b915050610232565b5090565b600081519050919050565b600082825260208201905092915050565b6000819050602082019050919050565b6000819050919050565b6102c1816102ae565b82525050565b60006102d383836102b8565b60208301905092915050565b6000602082019050919050565b60006102f782610282565b610301818561028d565b935061030c8361029e565b8060005b8381101561033d57815161032488826102c7565b975061032f836102df565b925050600181019050610310565b5085935050505092915050565b6000602082019050818103600083015261036481846102ec565b905092915050565b600080fd5b61037a816102ae565b811461038557600080fd5b50565b60008135905061039781610371565b92915050565b6000602082840312156103b3576103b261036c565b5b60006103c184828501610388565b91505092915050565b6103d3816102ae565b82525050565b60006020820190506103ee60008301846103ca565b92915050565b600082825260208201905092915050565b7f496e64657820696e76616c696465000000000000000000000000000000000000600082015250565b600061043b600e836103f4565b915061044682610405565b602082019050919050565b6000602082019050818103600083015261046a8161042e565b9050919050565b7f4e487b7100000000000000000000000000000000000000000000000000000000600052603260045260246000fd5b7f4e487b7100000000000000000000000000000000000000000000000000000000600052601160045260246000fd5b60006104da826102ae565b91506104e5836102ae565b9250827fffffffffffffffffffffffffffffffffffffffffffffffffffffffffffffffff0382111561051a576105196104a0565b5b828201905092915050565b6000610530826102ae565b91507fffffffffffffffffffffffffffffffffffffffffffffffffffffffffffffffff8203610562576105616104a0565b5b60018201905091905056fea2646970667358221220679e79cde983e6c36bb4b9cde45cafd08d56ca715982e3d02eb2da7fa2c6111364736f6c634300080d0033",
  "immutableReferences": {},
  "source": "// SPDX-License-Identifier: MIT\npragma solidity >=0.4.22 <0.9.0;\n\ncontract ListeNombres {\n    uint[] public nombres;\n\n    constructor() {\n        nombres.push(10);\n        nombres.push(20);\n        nombres.push(30);\n    }\n\n    function ajouterNombre(uint n) public {\n        nombres.push(n);\n    }\n\n    function getElement(uint index) public view returns (uint) {\n        require(index < nombres.length, \"Index invalide\");\n        return nombres[index];\n    }\n\n    function afficheTableau() public view returns (uint[] memory) {\n        return nombres;\n    }\n\n    function calculerSomme() public view returns (uint somme) {\n        for (uint i = 0; i < nombres.length; i++) {\n            somme += nombres[i];\n        }\n    }\n}\n",
  "sourcePath": "C:\\Users\\21267\\Desktop\\Master\\Blockchain\\PFE\\contracts\\ListeNombres.sol",
  "compiler": {
    "name": "solc",
    "version": "0.8.13+commit.abaa5c0e.Emscripten.clang"
  },
  "schemaVersion": "3.4.16",
  "updatedAt": "2025-07-26T23:31:17.950Z",
  "networkType": "ethereum",
  "devdoc": {
    "kind": "dev",
    "methods": {},
    "version": 1
  },
  "userdoc": {
    "kind": "user",
    "methods": {},
    "version": 1
  }
}