{
  "contractName": "Parite",
  "abi": [
    {
      "inputs": [
        {
          "internalType": "int256",
          "name": "nombre",
          "type": "int256"
        }
      ],
      "name": "estPair",
      "outputs": [
        {
          "internalType": "bool",
          "name": "",
          "type": "bool"
        }
      ],
      "stateMutability": "pure",
      "type": "function",
      "constant": true
    }
  ],
  "bytecode": "0x608060405234801561001057600080fd5b506101ac806100206000396000f3fe608060405234801561001057600080fd5b506004361061002b5760003560e01c8063a504270414610030575b600080fd5b61004a600480360381019061004591906100b3565b610060565b60405161005791906100fb565b60405180910390f35b6000806002836100709190610145565b149050919050565b600080fd5b6000819050919050565b6100908161007d565b811461009b57600080fd5b50565b6000813590506100ad81610087565b92915050565b6000602082840312156100c9576100c8610078565b5b60006100d78482850161009e565b91505092915050565b60008115159050919050565b6100f5816100e0565b82525050565b600060208201905061011060008301846100ec565b92915050565b7f4e487b7100000000000000000000000000000000000000000000000000000000600052601260045260246000fd5b60006101508261007d565b915061015b8361007d565b92508261016b5761016a610116565b5b82820790509291505056fea264697066735822122000e39f0120de7550d39cdc596eaafa6e40095b25bc6d322344fa87013e9bee2264736f6c634300080d0033",
  "immutableReferences": {},
  "source": "// SPDX-License-Identifier: MIT\npragma solidity >=0.4.22 <0.9.0;\n\ncontract Parite {\n    function estPair(int nombre) public pure returns (bool) {\n        return nombre % 2 == 0;\n    }\n}\n",
  "sourcePath": "C:\\Users\\21267\\Desktop\\Master\\Blockchain\\PFE\\contracts\\Parite.sol",
  "compiler": {
    "name": "solc",
    "version": "0.8.13+commit.abaa5c0e.Emscripten.clang"
  },
  "schemaVersion": "3.4.16",
  "updatedAt": "2025-07-26T23:31:17.731Z",
  "networkType": "ethereum",
  "devdoc": {
    "kind": "dev",
    "methods": {},
    "version": 1
  },
  "userdoc": {
    "kind": "user",
    "methods": {},
    "version": 1
  }
}