{
  "contractName": "Payment",
  "abi": [
    {
      "inputs": [
        {
          "internalType": "address",
          "name": "_recipient",
          "type": "address"
        }
      ],
      "stateMutability": "nonpayable",
      "type": "constructor"
    },
    {
      "inputs": [],
      "name": "recipient",
      "outputs": [
        {
          "internalType": "address",
          "name": "",
          "type": "address"
        }
      ],
      "stateMutability": "view",
      "type": "function",
      "constant": true
    },
    {
      "inputs": [],
      "name": "receivePayment",
      "outputs": [],
      "stateMutability": "payable",
      "type": "function",
      "payable": true
    },
    {
      "inputs": [],
      "name": "withdraw",
      "outputs": [],
      "stateMutability": "nonpayable",
      "type": "function"
    },
    {
      "inputs": [],
      "name": "getBalance",
      "outputs": [
        {
          "internalType": "uint256",
          "name": "",
          "type": "uint256"
        }
      ],
      "stateMutability": "view",
      "type": "function",
      "constant": true
    }
  ],
  "bytecode": "0x608060405234801561001057600080fd5b506040516104e93803806104e9833981810160405281019061003291906100db565b806000806101000a81548173ffffffffffffffffffffffffffffffffffffffff021916908373ffffffffffffffffffffffffffffffffffffffff16021790555050610108565b600080fd5b600073ffffffffffffffffffffffffffffffffffffffff82169050919050565b60006100a88261007d565b9050919050565b6100b88161009d565b81146100c357600080fd5b50565b6000815190506100d5816100af565b92915050565b6000602082840312156100f1576100f0610078565b5b60006100ff848285016100c6565b91505092915050565b6103d2806101176000396000f3fe60806040526004361061003f5760003560e01c806312065fe0146100445780633ccfd60b1461006f57806366d003ac14610086578063835c19f3146100b1575b600080fd5b34801561005057600080fd5b506100596100bb565b604051610066919061023c565b60405180910390f35b34801561007b57600080fd5b506100846100c3565b005b34801561009257600080fd5b5061009b6101ba565b6040516100a89190610298565b60405180910390f35b6100b96101de565b005b600047905090565b60008054906101000a900473ffffffffffffffffffffffffffffffffffffffff1673ffffffffffffffffffffffffffffffffffffffff163373ffffffffffffffffffffffffffffffffffffffff1614610151576040517f08c379a000000000000000000000000000000000000000000000000000000000815260040161014890610310565b60405180910390fd5b60008054906101000a900473ffffffffffffffffffffffffffffffffffffffff1673ffffffffffffffffffffffffffffffffffffffff166108fc479081150290604051600060405180830381858888f193505050501580156101b7573d6000803e3d6000fd5b50565b60008054906101000a900473ffffffffffffffffffffffffffffffffffffffff1681565b60003411610221576040517f08c379a00000000000000000000000000000000000000000000000000000000081526004016102189061037c565b60405180910390fd5b565b6000819050919050565b61023681610223565b82525050565b6000602082019050610251600083018461022d565b92915050565b600073ffffffffffffffffffffffffffffffffffffffff82169050919050565b600061028282610257565b9050919050565b61029281610277565b82525050565b60006020820190506102ad6000830184610289565b92915050565b600082825260208201905092915050565b7f4163636573207265667573650000000000000000000000000000000000000000600082015250565b60006102fa600c836102b3565b9150610305826102c4565b602082019050919050565b60006020820190508181036000830152610329816102ed565b9050919050565b7f4d6f6e74616e74206e756c20696e746572646974000000000000000000000000600082015250565b60006103666014836102b3565b915061037182610330565b602082019050919050565b6000602082019050818103600083015261039581610359565b905091905056fea2646970667358221220f2a768750110b5e59bc3b754c7ebfee459c90caa7edd13b036d771da6ddc14a464736f6c634300080d0033",
  "immutableReferences": {},
  "source": "// SPDX-License-Identifier: MIT\npragma solidity >=0.4.22 <0.9.0;\n\ncontract Payment {\n    address public recipient;\n\n    constructor(address _recipient) {\n        recipient = _recipient;\n    }\n\n    function receivePayment() public payable {\n        require(msg.value > 0, \"Montant nul interdit\");\n    }\n\n    function withdraw() public {\n        require(msg.sender == recipient, \"Acces refuse\");\n        payable(recipient).transfer(address(this).balance);\n    }\n\n    function getBalance() public view returns (uint) {\n        return address(this).balance;\n    }\n}\n",
  "sourcePath": "C:\\Users\\21267\\Desktop\\Master\\Blockchain\\PFE\\contracts\\Payment.sol",
  "compiler": {
    "name": "solc",
    "version": "0.8.13+commit.abaa5c0e.Emscripten.clang"
  },
  "schemaVersion": "3.4.16",
  "updatedAt": "2025-07-27T00:06:43.478Z",
  "networkType": "ethereum",
  "devdoc": {
    "kind": "dev",
    "methods": {},
    "version": 1
  },
  "userdoc": {
    "kind": "user",
    "methods": {},
    "version": 1
  }
}